{
  "contractName": "ERC20FaucetMock",
  "abi": [
    {
      "constant": true,
      "inputs": [],
      "name": "getBlockNumberExt",
      "outputs": [
        {
          "name": "",
          "type": "uint256"
        }
      ],
      "payable": false,
      "stateMutability": "view",
      "type": "function"
    },
    {
      "constant": true,
      "inputs": [
        {
          "name": "_token",
          "type": "address"
        }
      ],
      "name": "getQuota",
      "outputs": [
        {
          "name": "period",
          "type": "uint256"
        },
        {
          "name": "amount",
          "type": "uint256"
        }
      ],
      "payable": false,
      "stateMutability": "view",
      "type": "function"
    },
    {
      "constant": true,
      "inputs": [
        {
          "name": "_token",
          "type": "address"
        }
      ],
      "name": "getTotalSupply",
      "outputs": [
        {
          "name": "",
          "type": "uint256"
        }
      ],
      "payable": false,
      "stateMutability": "view",
      "type": "function"
    },
    {
      "constant": false,
      "inputs": [
        {
          "name": "_timestamp",
          "type": "uint256"
        }
      ],
      "name": "mockSetTimestamp",
      "outputs": [],
      "payable": false,
      "stateMutability": "nonpayable",
      "type": "function"
    },
    {
      "constant": false,
      "inputs": [
        {
          "name": "_number",
          "type": "uint256"
        }
      ],
      "name": "mockAdvanceBlocks",
      "outputs": [],
      "payable": false,
      "stateMutability": "nonpayable",
      "type": "function"
    },
    {
      "constant": true,
      "inputs": [],
      "name": "getStartDate",
      "outputs": [
        {
          "name": "",
          "type": "uint256"
        }
      ],
      "payable": false,
      "stateMutability": "view",
      "type": "function"
    },
    {
      "constant": false,
      "inputs": [
        {
          "name": "_number",
          "type": "uint256"
        }
      ],
      "name": "mockSetBlockNumber",
      "outputs": [],
      "payable": false,
      "stateMutability": "nonpayable",
      "type": "function"
    },
    {
      "constant": true,
      "inputs": [],
      "name": "getOwner",
      "outputs": [
        {
          "name": "",
          "type": "address"
        }
      ],
      "payable": false,
      "stateMutability": "view",
      "type": "function"
    },
    {
      "constant": false,
      "inputs": [
        {
          "name": "_seconds",
          "type": "uint256"
        }
      ],
      "name": "mockIncreaseTime",
      "outputs": [],
      "payable": false,
      "stateMutability": "nonpayable",
      "type": "function"
    },
    {
      "constant": true,
      "inputs": [],
      "name": "getTimestampExt",
      "outputs": [
        {
          "name": "",
          "type": "uint256"
        }
      ],
      "payable": false,
      "stateMutability": "view",
      "type": "function"
    },
    {
      "constant": true,
      "inputs": [
        {
          "name": "_account",
          "type": "address"
        },
        {
          "name": "_token",
          "type": "address"
        }
      ],
      "name": "getWithdrawal",
      "outputs": [
        {
          "name": "id",
          "type": "uint256"
        },
        {
          "name": "amount",
          "type": "uint256"
        }
      ],
      "payable": false,
      "stateMutability": "view",
      "type": "function"
    },
    {
      "constant": false,
      "inputs": [
        {
          "name": "_tokens",
          "type": "address[]"
        },
        {
          "name": "_periods",
          "type": "uint256[]"
        },
        {
          "name": "_amounts",
          "type": "uint256[]"
        }
      ],
      "name": "setQuotas",
      "outputs": [],
      "payable": false,
      "stateMutability": "nonpayable",
      "type": "function"
    },
    {
      "constant": false,
      "inputs": [
        {
          "name": "_token",
          "type": "address"
        },
        {
          "name": "_amount",
          "type": "uint256"
        }
      ],
      "name": "donate",
      "outputs": [],
      "payable": false,
      "stateMutability": "nonpayable",
      "type": "function"
    },
    {
      "constant": false,
      "inputs": [
        {
          "name": "_newOwner",
          "type": "address"
        }
      ],
      "name": "transferOwnership",
      "outputs": [],
      "payable": false,
      "stateMutability": "nonpayable",
      "type": "function"
    },
    {
      "constant": false,
      "inputs": [
        {
          "name": "_token",
          "type": "address"
        },
        {
          "name": "_amount",
          "type": "uint256"
        }
      ],
      "name": "withdraw",
      "outputs": [],
      "payable": false,
      "stateMutability": "nonpayable",
      "type": "function"
    },
    {
      "inputs": [
        {
          "name": "_tokens",
          "type": "address[]"
        },
        {
          "name": "_periods",
          "type": "uint256[]"
        },
        {
          "name": "_amounts",
          "type": "uint256[]"
        }
      ],
      "payable": false,
      "stateMutability": "nonpayable",
      "type": "constructor"
    },
    {
      "anonymous": false,
      "inputs": [
        {
          "indexed": true,
          "name": "token",
          "type": "address"
        },
        {
          "indexed": false,
          "name": "period",
          "type": "uint256"
        },
        {
          "indexed": false,
          "name": "amount",
          "type": "uint256"
        }
      ],
      "name": "TokenQuotaSet",
      "type": "event"
    },
    {
      "anonymous": false,
      "inputs": [
        {
          "indexed": true,
          "name": "token",
          "type": "address"
        },
        {
          "indexed": true,
          "name": "donor",
          "type": "address"
        },
        {
          "indexed": false,
          "name": "amount",
          "type": "uint256"
        },
        {
          "indexed": false,
          "name": "totalSupply",
          "type": "uint256"
        }
      ],
      "name": "TokensDonated",
      "type": "event"
    },
    {
      "anonymous": false,
      "inputs": [
        {
          "indexed": true,
          "name": "token",
          "type": "address"
        },
        {
          "indexed": true,
          "name": "account",
          "type": "address"
        },
        {
          "indexed": false,
          "name": "amount",
          "type": "uint256"
        },
        {
          "indexed": false,
          "name": "totalSupply",
          "type": "uint256"
        }
      ],
      "name": "TokensWithdrawn",
      "type": "event"
    },
    {
      "anonymous": false,
      "inputs": [
        {
          "indexed": true,
          "name": "previousOwner",
          "type": "address"
        },
        {
          "indexed": true,
          "name": "newOwner",
          "type": "address"
        }
      ],
      "name": "OwnershipTransferred",
      "type": "event"
    }
  ],
  "bytecode": "0x60806040523480156200001157600080fd5b5060405162001c9d38038062001c9d833981018060405260608110156200003757600080fd5b8101908080516401000000008111156200005057600080fd5b820160208101848111156200006457600080fd5b81518560208202830111640100000000821117156200008257600080fd5b505092919060200180516401000000008111156200009f57600080fd5b82016020810184811115620000b357600080fd5b8151856020820283011164010000000082111715620000d157600080fd5b50509291906020018051640100000000811115620000ee57600080fd5b820160208101848111156200010257600080fd5b81518560208202830111640100000000821117156200012057600080fd5b50509291905050508282826200013c336200016f60201b60201c565b6200014c620001ca60201b60201c565b60015562000163838383620001fc602090811b901c565b50505050505062000593565b600080546040516001600160a01b03808516939216917f8be0079c531659141344cd1fd0a4f28419497f9722a3daafe3b4186f6b6457e091a3600080546001600160a01b0319166001600160a01b0392909216919091179055565b6000600554600014620001e15750600554620001f9565b620001f6620003ef60201b620014d81760201c565b90505b90565b81518351146040518060400160405280601c81526020017f4641554345545f494e56414c49445f51554f5441535f4c454e4754480000000081525090620002de576040517f08c379a00000000000000000000000000000000000000000000000000000000081526004018080602001828103825283818151815260200191508051906020019080838360005b83811015620002a257818101518382015260200162000288565b50505050905090810190601f168015620002d05780820380516001836020036101000a031916815260200191505b509250505060405180910390fd5b5080518351146040518060400160405280601c81526020017f4641554345545f494e56414c49445f51554f5441535f4c454e475448000000008152509062000383576040517f08c379a0000000000000000000000000000000000000000000000000000000008152602060048201818152835160248401528351909283926044909101919085019080838360008315620002a257818101518382015260200162000288565b5060005b8351811015620003e957620003e0848281518110620003a257fe5b6020026020010151848381518110620003b757fe5b6020026020010151848481518110620003cc57fe5b6020026020010151620003f360201b60201c565b60010162000387565b50505050565b4290565b60408051808201909152601881527f4641554345545f51554f54415f504552494f445f5a45524f000000000000000060208201528262000490576040517f08c379a0000000000000000000000000000000000000000000000000000000008152602060048201818152835160248401528351909283926044909101919085019080838360008315620002a257818101518382015260200162000288565b5060408051808201909152601881527f4641554345545f51554f54415f414d4f554e545f5a45524f00000000000000006020820152816200052e576040517f08c379a0000000000000000000000000000000000000000000000000000000008152602060048201818152835160248401528351909283926044909101919085019080838360008315620002a257818101518382015260200162000288565b506001600160a01b03831660008181526002602090815260409182902085815560018101859055825186815291820185905282519093927fda01cca05a1edc249ac6ec8a9af5b776b4957a44cb4e0198caba683d76f7b103928290030190a250505050565b6116fa80620005a36000396000f3fe608060405234801561001057600080fd5b50600436106100f55760003560e01c8063893d20e811610097578063be26764b11610066578063be26764b14610285578063e69d849d14610399578063f2fde38b146103d2578063f3fef3a314610405576100f5565b8063893d20e8146101f45780638f49e12f146102255780639a60f35614610242578063a4fd90081461024a576100f5565b80636958839e116100d35780636958839e146101935780637750db14146101b257806378f305c6146101cf57806387adc163146101d7576100f5565b806312de7d70146100fa57806343a2a3021461011457806368da10ae14610160575b600080fd5b61010261043e565b60408051918252519081900360200190f35b6101476004803603602081101561012a57600080fd5b503573ffffffffffffffffffffffffffffffffffffffff1661044e565b6040805192835260208301919091528051918290030190f35b6101026004803603602081101561017657600080fd5b503573ffffffffffffffffffffffffffffffffffffffff1661047e565b6101b0600480360360208110156101a957600080fd5b50356104a6565b005b6101b0600480360360208110156101c857600080fd5b50356104ab565b61010261050d565b6101b0600480360360208110156101ed57600080fd5b5035610513565b6101fc610518565b6040805173ffffffffffffffffffffffffffffffffffffffff9092168252519081900360200190f35b6101b06004803603602081101561023b57600080fd5b5035610534565b61010261056d565b6101476004803603604081101561026057600080fd5b5073ffffffffffffffffffffffffffffffffffffffff81358116916020013516610577565b6101b06004803603606081101561029b57600080fd5b8101906020810181356401000000008111156102b657600080fd5b8201836020820111156102c857600080fd5b803590602001918460208302840111640100000000831117156102ea57600080fd5b91939092909160208101903564010000000081111561030857600080fd5b82018360208201111561031a57600080fd5b8035906020019184602083028401116401000000008311171561033c57600080fd5b91939092909160208101903564010000000081111561035a57600080fd5b82018360208201111561036c57600080fd5b8035906020019184602083028401116401000000008311171561038e57600080fd5b5090925090506105b6565b6101b0600480360360408110156103af57600080fd5b5073ffffffffffffffffffffffffffffffffffffffff813516906020013561074f565b6101b0600480360360208110156103e857600080fd5b503573ffffffffffffffffffffffffffffffffffffffff16610988565b6101b06004803603604081101561041b57600080fd5b5073ffffffffffffffffffffffffffffffffffffffff8135169060200135610af8565b6000610448610ef2565b90505b90565b73ffffffffffffffffffffffffffffffffffffffff16600090815260026020526040902080546001909101549091565b73ffffffffffffffffffffffffffffffffffffffff1660009081526003602052604090205490565b600555565b600654156104d3576006546104c6908263ffffffff610f2c16565b600755600060065561050a565b600754156104f6576007546104ee908263ffffffff610f2c16565b60075561050a565b610506438263ffffffff610f2c16565b6007555b50565b60015490565b600655565b60005473ffffffffffffffffffffffffffffffffffffffff1690565b600554156105575760055461054f908263ffffffff610f2c16565b60055561050a565b610567428263ffffffff610f2c16565b60055550565b6000610448610fd8565b73ffffffffffffffffffffffffffffffffffffffff91821660009081526004602090815260408083209390941682526001830190529190912054905491565b60005460408051808201909152601881527f4f574e41424c455f53454e4445525f4e4f545f4f574e4552000000000000000060208201529073ffffffffffffffffffffffffffffffffffffffff1633146106a8576040517f08c379a00000000000000000000000000000000000000000000000000000000081526004018080602001828103825283818151815260200191508051906020019080838360005b8381101561066d578181015183820152602001610655565b50505050905090810190601f16801561069a5780820380516001836020036101000a031916815260200191505b509250505060405180910390fd5b5061074786868080602002602001604051908101604052809392919081815260200183836020028082843760009201919091525050604080516020808a0282810182019093528982529093508992508891829185019084908082843760009201919091525050604080516020808902828101820190935288825290935088925087918291850190849080828437600092019190915250610ff592505050565b505050505050565b73ffffffffffffffffffffffffffffffffffffffff8216600090815260026020908152604091829020600101548251808401909352601883527f4641554345545f51554f54415f414d4f554e545f5a45524f000000000000000091830191909152839190610818576040517f08c379a000000000000000000000000000000000000000000000000000000000815260206004820181815283516024840152835190928392604490910191908501908083836000831561066d578181015183820152602001610655565b5073ffffffffffffffffffffffffffffffffffffffff811660009081526003602052604081205461084f908463ffffffff610f2c16565b73ffffffffffffffffffffffffffffffffffffffff808416600090815260036020908152604091829020849055815187815290810184905281519394503393928816927f23818a79f4abb49adf42858bf1166f15816750b77dfaa19595f4de03e3e31584929181900390910190a36108e573ffffffffffffffffffffffffffffffffffffffff851633308663ffffffff61119716565b6040518060400160405280601681526020017f4641554345545f5452414e534645525f4641494c45440000000000000000000081525090610981576040517f08c379a000000000000000000000000000000000000000000000000000000000815260206004820181815283516024840152835190928392604490910191908501908083836000831561066d578181015183820152602001610655565b5050505050565b60005460408051808201909152601881527f4f574e41424c455f53454e4445525f4e4f545f4f574e4552000000000000000060208201529073ffffffffffffffffffffffffffffffffffffffff163314610a3d576040517f08c379a000000000000000000000000000000000000000000000000000000000815260206004820181815283516024840152835190928392604490910191908501908083836000831561066d578181015183820152602001610655565b5060408051808201909152601e81527f4f574e41424c455f4e45575f4f574e45525f414444524553535f5a45524f0000602082015273ffffffffffffffffffffffffffffffffffffffff8216610aee576040517f08c379a000000000000000000000000000000000000000000000000000000000815260206004820181815283516024840152835190928392604490910191908501908083836000831561066d578181015183820152602001610655565b5061050a81611238565b73ffffffffffffffffffffffffffffffffffffffff8216600090815260036020908152604091829020548251808401909352601883527f4641554345545f4e4f545f454e4f5547485f535550504c59000000000000000091830191909152839183821015610bc1576040517f08c379a000000000000000000000000000000000000000000000000000000000815260206004820181815283516024840152835190928392604490910191908501908083836000831561066d578181015183820152602001610655565b50336000908152600460209081526040808320805473ffffffffffffffffffffffffffffffffffffffff8716855260029093529083209092610c02826112c5565b9050808311156040518060400160405280601981526020017f4641554345545f4655545552455f4c4153545f504552494f440000000000000081525090610ca4576040517f08c379a000000000000000000000000000000000000000000000000000000000815260206004820181815283516024840152835190928392604490910191908501908083836000831561066d578181015183820152602001610655565b5073ffffffffffffffffffffffffffffffffffffffff8616600090815260018501602052604081205490848314610cdb5788610ceb565b610ceb828a63ffffffff610f2c16565b905083600101548111156040518060400160405280601b81526020017f4641554345545f414d4f554e545f455843454544535f51554f5441000000000081525090610d91576040517f08c379a000000000000000000000000000000000000000000000000000000000815260206004820181815283516024840152835190928392604490910191908501908083836000831561066d578181015183820152602001610655565b506000610da4888b63ffffffff61139316565b73ffffffffffffffffffffffffffffffffffffffff808b166000908152600360209081526040808320859055888c5560018c0182529182902086905581518e815290810184905281519394503393928f16927f6b83b455c317523498e4e86849438d4356ad79ba6b355a5e6d5bc05eca6c780f929181900390910190a3610e4873ffffffffffffffffffffffffffffffffffffffff8c16338c63ffffffff61143c16565b6040518060400160405280601681526020017f4641554345545f5452414e534645525f4641494c45440000000000000000000081525090610ee4576040517f08c379a000000000000000000000000000000000000000000000000000000000815260206004820181815283516024840152835190928392604490910191908501908083836000831561066d578181015183820152602001610655565b505050505050505050505050565b6000600654600014610f07575060065461044b565b6000610f116114d4565b90508060075411610f225780610f26565b6007545b91505090565b60408051808201909152601181527f4d4154485f4144445f4f564552464c4f5700000000000000000000000000000060208201526000908383019084821015610fd0576040517f08c379a000000000000000000000000000000000000000000000000000000000815260206004820181815283516024840152835190928392604490910191908501908083836000831561066d578181015183820152602001610655565b509392505050565b6000600554600014610fed575060055461044b565b6104486114d8565b81518351146040518060400160405280601c81526020017f4641554345545f494e56414c49445f51554f5441535f4c454e4754480000000081525090611096576040517f08c379a000000000000000000000000000000000000000000000000000000000815260206004820181815283516024840152835190928392604490910191908501908083836000831561066d578181015183820152602001610655565b5080518351146040518060400160405280601c81526020017f4641554345545f494e56414c49445f51554f5441535f4c454e4754480000000081525090611138576040517f08c379a000000000000000000000000000000000000000000000000000000000815260206004820181815283516024840152835190928392604490910191908501908083836000831561066d578181015183820152602001610655565b5060005b83518110156111915761118984828151811061115457fe5b602002602001015184838151811061116857fe5b602002602001015184848151811061117c57fe5b60200260200101516114dc565b60010161113c565b50505050565b6040805173ffffffffffffffffffffffffffffffffffffffff85811660248301528416604482015260648082018490528251808303909101815260849091019091526020810180517bffffffffffffffffffffffffffffffffffffffffffffffffffffffff167f23b872dd0000000000000000000000000000000000000000000000000000000017905260009061122e8682611683565b9695505050505050565b6000805460405173ffffffffffffffffffffffffffffffffffffffff808516939216917f8be0079c531659141344cd1fd0a4f28419497f9722a3daafe3b4186f6b6457e091a3600080547fffffffffffffffffffffffff00000000000000000000000000000000000000001673ffffffffffffffffffffffffffffffffffffffff92909216919091179055565b600154600090816112d4610fd8565b9050818110156040518060400160405280601881526020017f4641554345545f4655545552455f53544152545f44415445000000000000000081525090611376576040517f08c379a000000000000000000000000000000000000000000000000000000000815260206004820181815283516024840152835190928392604490910191908501908083836000831561066d578181015183820152602001610655565b50835482820390600090828161138857fe5b049695505050505050565b6000828211156040518060400160405280601281526020017f4d4154485f5355425f554e444552464c4f57000000000000000000000000000081525090611435576040517f08c379a000000000000000000000000000000000000000000000000000000000815260206004820181815283516024840152835190928392604490910191908501908083836000831561066d578181015183820152602001610655565b5050900390565b6040805173ffffffffffffffffffffffffffffffffffffffff8416602482015260448082018490528251808303909101815260649091019091526020810180517bffffffffffffffffffffffffffffffffffffffffffffffffffffffff167fa9059cbb000000000000000000000000000000000000000000000000000000001790526000906114cb8582611683565b95945050505050565b4390565b4290565b60408051808201909152601881527f4641554345545f51554f54415f504552494f445f5a45524f0000000000000000602082015282611576576040517f08c379a000000000000000000000000000000000000000000000000000000000815260206004820181815283516024840152835190928392604490910191908501908083836000831561066d578181015183820152602001610655565b5060408051808201909152601881527f4641554345545f51554f54415f414d4f554e545f5a45524f0000000000000000602082015281611611576040517f08c379a000000000000000000000000000000000000000000000000000000000815260206004820181815283516024840152835190928392604490910191908501908083836000831561066d578181015183820152602001610655565b5073ffffffffffffffffffffffffffffffffffffffff831660008181526002602090815260409182902085815560018101859055825186815291820185905282519093927fda01cca05a1edc249ac6ec8a9af5b776b4957a44cb4e0198caba683d76f7b103928290030190a250505050565b6000806040516020818551602087016000895af180156116c4573d80156116b157602081146116ba576116c2565b600193506116c2565b600183511493505b505b509094935050505056fea165627a7a72305820ffa8e7a49be4e67886f354b0b9599de78d3e5e885656203ae0f4cd66f73758a30029",
  "source": "pragma solidity ^0.5.8;\n\nimport \"../ERC20Faucet.sol\";\nimport \"./TimeHelpersMock.sol\";\n\n\ncontract ERC20FaucetMock is ERC20Faucet, TimeHelpersMock {\n    constructor (ERC20[] memory _tokens, uint256[] memory _periods, uint256[] memory _amounts)\n        ERC20Faucet(_tokens, _periods, _amounts)\n        public\n    {}\n}\n",
  "sourcePath": "/Users/facu/Documents/work/aragon/dev/token-faucet/contracts/test/ERC20FaucetMock.sol",
  "compiler": {
    "name": "solc",
    "version": "0.5.8+commit.23d335f2.Emscripten.clang"
  },
  "schemaVersion": "3.0.19",
  "updatedAt": "2019-12-15T15:17:07.113Z",
  "devdoc": {
    "methods": {
      "donate(address,uint256)": {
        "params": {
          "_token": "Amount being deposited"
        }
      },
      "getBlockNumberExt()": {
        "details": "Tells the mocked block number in uint256, or the real block number if it wasn't mocked"
      },
      "getQuota(address)": {
        "details": "Tell the quota information for a certain token",
        "params": {
          "_token": "ERC20 token being queried"
        },
        "return": "period Periods length for the requested ERC20 token quotaamount Quota amount for the requested ERC20 token"
      },
      "getStartDate()": {
        "details": "Tell the start date of the faucet",
        "return": "Start date of the faucet"
      },
      "getTimestampExt()": {
        "details": "Tells the mocked timestamp value in uint256, or the real timestamp if it wasn't mocked"
      },
      "getTotalSupply(address)": {
        "details": "Tell the total supply of the faucet for a certain ERC20 token",
        "params": {
          "_token": "ERC20 token being queried"
        },
        "return": "Total supply of the faucet for the requested ERC20 token"
      },
      "getWithdrawal(address,address)": {
        "details": "Tell the last period withdrawals of an ERC20 token for a certain account",
        "params": {
          "_account": "Address of the account being queried",
          "_token": "ERC20 token being queried"
        },
        "return": "id ID of the last period when the requested account withdraw a certain amountamount Amount withdrawn by the requested account during the last period"
      },
      "mockAdvanceBlocks(uint256)": {
        "details": "Advances the mocked block number value, used only for testing purposes"
      },
      "mockIncreaseTime(uint256)": {
        "details": "Increases the mocked timestamp value, used only for testing purposes"
      },
      "mockSetBlockNumber(uint256)": {
        "details": "Sets a mocked block number value, used only for testing purposes"
      },
      "mockSetTimestamp(uint256)": {
        "details": "Sets a mocked timestamp value, used only for testing purposes"
      },
      "setQuotas(address[],uint256[],uint256[])": {
        "params": {
          "_amounts": "List of quota amounts for each ERC20 token",
          "_periods": "List of periods length for each ERC20 token quota",
          "_tokens": "List of ERC20 tokens to be set"
        }
      },
      "withdraw(address,uint256)": {
        "params": {
          "_token": "Amount being withdrawn"
        }
      }
    }
  },
  "userdoc": {
    "methods": {
      "donate(address,uint256)": {
        "notice": "Donate `@tokenAmount(_token, _amount)`"
      },
      "setQuotas(address[],uint256[],uint256[])": {
        "notice": "Set a list of token quotas"
      },
      "withdraw(address,uint256)": {
        "notice": "Withdraw `@tokenAmount(_token, _amount)`"
      }
    }
  }
}