{
  "contractName": "ERC20Mock",
  "abi": [
    {
      "constant": true,
      "inputs": [],
      "name": "name",
      "outputs": [
        {
          "name": "",
          "type": "string"
        }
      ],
      "payable": false,
      "stateMutability": "view",
      "type": "function"
    },
    {
      "constant": true,
      "inputs": [],
      "name": "totalSupply",
      "outputs": [
        {
          "name": "",
          "type": "uint256"
        }
      ],
      "payable": false,
      "stateMutability": "view",
      "type": "function"
    },
    {
      "constant": true,
      "inputs": [],
      "name": "decimals",
      "outputs": [
        {
          "name": "",
          "type": "uint8"
        }
      ],
      "payable": false,
      "stateMutability": "view",
      "type": "function"
    },
    {
      "constant": true,
      "inputs": [],
      "name": "symbol",
      "outputs": [
        {
          "name": "",
          "type": "string"
        }
      ],
      "payable": false,
      "stateMutability": "view",
      "type": "function"
    },
    {
      "inputs": [
        {
          "name": "_name",
          "type": "string"
        },
        {
          "name": "_symbol",
          "type": "string"
        },
        {
          "name": "_decimals",
          "type": "uint8"
        }
      ],
      "payable": false,
      "stateMutability": "nonpayable",
      "type": "constructor"
    },
    {
      "anonymous": false,
      "inputs": [
        {
          "indexed": true,
          "name": "owner",
          "type": "address"
        },
        {
          "indexed": true,
          "name": "spender",
          "type": "address"
        },
        {
          "indexed": false,
          "name": "value",
          "type": "uint256"
        }
      ],
      "name": "Approval",
      "type": "event"
    },
    {
      "anonymous": false,
      "inputs": [
        {
          "indexed": true,
          "name": "from",
          "type": "address"
        },
        {
          "indexed": true,
          "name": "to",
          "type": "address"
        },
        {
          "indexed": false,
          "name": "value",
          "type": "uint256"
        }
      ],
      "name": "Transfer",
      "type": "event"
    },
    {
      "constant": false,
      "inputs": [
        {
          "name": "_to",
          "type": "address"
        },
        {
          "name": "_amount",
          "type": "uint256"
        }
      ],
      "name": "generateTokens",
      "outputs": [],
      "payable": false,
      "stateMutability": "nonpayable",
      "type": "function"
    },
    {
      "constant": true,
      "inputs": [
        {
          "name": "_owner",
          "type": "address"
        }
      ],
      "name": "balanceOf",
      "outputs": [
        {
          "name": "",
          "type": "uint256"
        }
      ],
      "payable": false,
      "stateMutability": "view",
      "type": "function"
    },
    {
      "constant": true,
      "inputs": [
        {
          "name": "_owner",
          "type": "address"
        },
        {
          "name": "_spender",
          "type": "address"
        }
      ],
      "name": "allowance",
      "outputs": [
        {
          "name": "",
          "type": "uint256"
        }
      ],
      "payable": false,
      "stateMutability": "view",
      "type": "function"
    },
    {
      "constant": false,
      "inputs": [
        {
          "name": "_allowTransfer",
          "type": "bool"
        }
      ],
      "name": "setAllowTransfer",
      "outputs": [],
      "payable": false,
      "stateMutability": "nonpayable",
      "type": "function"
    },
    {
      "constant": false,
      "inputs": [
        {
          "name": "_to",
          "type": "address"
        },
        {
          "name": "_amount",
          "type": "uint256"
        }
      ],
      "name": "transfer",
      "outputs": [
        {
          "name": "",
          "type": "bool"
        }
      ],
      "payable": false,
      "stateMutability": "nonpayable",
      "type": "function"
    },
    {
      "constant": false,
      "inputs": [
        {
          "name": "_spender",
          "type": "address"
        },
        {
          "name": "_amount",
          "type": "uint256"
        }
      ],
      "name": "approve",
      "outputs": [
        {
          "name": "",
          "type": "bool"
        }
      ],
      "payable": false,
      "stateMutability": "nonpayable",
      "type": "function"
    },
    {
      "constant": false,
      "inputs": [
        {
          "name": "_from",
          "type": "address"
        },
        {
          "name": "_to",
          "type": "address"
        },
        {
          "name": "_amount",
          "type": "uint256"
        }
      ],
      "name": "transferFrom",
      "outputs": [
        {
          "name": "",
          "type": "bool"
        }
      ],
      "payable": false,
      "stateMutability": "nonpayable",
      "type": "function"
    }
  ],
  "bytecode": "0x60806040523480156200001157600080fd5b5060405162000ff238038062000ff2833981018060405260608110156200003757600080fd5b8101908080516401000000008111156200005057600080fd5b820160208101848111156200006457600080fd5b81516401000000008111828201871017156200007f57600080fd5b505092919060200180516401000000008111156200009c57600080fd5b82016020810184811115620000b057600080fd5b8151640100000000811182820187101715620000cb57600080fd5b505060209182015185519194509250620000ec91600091908601906200012a565b508151620001029060019060208501906200012a565b506002805460ff90921660ff1992831617905560048054909116600117905550620001cf9050565b828054600181600116156101000203166002900490600052602060002090601f016020900481019282601f106200016d57805160ff19168380011785556200019d565b828001600101855582156200019d579182015b828111156200019d57825182559160200191906001019062000180565b50620001ab929150620001af565b5090565b620001cc91905b80821115620001ab5760008155600101620001b6565b90565b610e1380620001df6000396000f3fe608060405234801561001057600080fd5b50600436106100c95760003560e01c8063313ce5671161008157806395d89b411161005b57806395d89b41146102a0578063a9059cbb146102a8578063dd62ed3e146102e1576100c9565b8063313ce5671461021657806370a0823114610234578063827f32c014610267576100c9565b80630b81e216116100b25780630b81e2161461019857806318160ddd146101b957806323b872dd146101d3576100c9565b806306fdde03146100ce578063095ea7b31461014b575b600080fd5b6100d661031c565b6040805160208082528351818301528351919283929083019185019080838360005b838110156101105781810151838201526020016100f8565b50505050905090810190601f16801561013d5780820380516001836020036101000a031916815260200191505b509250505060405180910390f35b6101846004803603604081101561016157600080fd5b5073ffffffffffffffffffffffffffffffffffffffff81351690602001356103c8565b604080519115158252519081900360200190f35b6101b7600480360360208110156101ae57600080fd5b503515156104e4565b005b6101c1610515565b60408051918252519081900360200190f35b610184600480360360608110156101e957600080fd5b5073ffffffffffffffffffffffffffffffffffffffff81358116916020810135909116906040013561051b565b61021e610885565b6040805160ff9092168252519081900360200190f35b6101c16004803603602081101561024a57600080fd5b503573ffffffffffffffffffffffffffffffffffffffff1661088e565b6101b76004803603604081101561027d57600080fd5b5073ffffffffffffffffffffffffffffffffffffffff81351690602001356108b6565b6100d6610967565b610184600480360360408110156102be57600080fd5b5073ffffffffffffffffffffffffffffffffffffffff81351690602001356109df565b6101c1600480360360408110156102f757600080fd5b5073ffffffffffffffffffffffffffffffffffffffff81358116916020013516610c1d565b6000805460408051602060026001851615610100027fffffffffffffffffffffffffffffffffffffffffffffffffffffffffffffffff0190941693909304601f810184900484028201840190925281815292918301828280156103c05780601f10610395576101008083540402835291602001916103c0565b820191906000526020600020905b8154815290600101906020018083116103a357829003601f168201915b505050505081565b6000811580610405575033600090815260066020908152604080832073ffffffffffffffffffffffffffffffffffffffff87168452909152902054155b61047057604080517f08c379a000000000000000000000000000000000000000000000000000000000815260206004820152601c60248201527f4552524f525f414c4c4f57414e43455f4d5553545f42455f5a45524f00000000604482015290519081900360640190fd5b33600081815260066020908152604080832073ffffffffffffffffffffffffffffffffffffffff881680855290835292819020869055805186815290519293927f8c5be1e5ebec7d5bd14f71427d1e84f3dd0314c0f7b2291e5b200ac8c7c3b925929181900390910190a350600192915050565b600480547fffffffffffffffffffffffffffffffffffffffffffffffffffffffffffffff0016911515919091179055565b60035481565b60045460009060ff1661058f57604080517f08c379a000000000000000000000000000000000000000000000000000000000815260206004820152601b60248201527f4552524f525f5452414e53464552535f4e4f545f414c4c4f5745440000000000604482015290519081900360640190fd5b73ffffffffffffffffffffffffffffffffffffffff841660009081526005602052604090205482111561062357604080517f08c379a000000000000000000000000000000000000000000000000000000000815260206004820152601860248201527f4552524f525f4e4f545f454e4f5547485f42414c414e43450000000000000000604482015290519081900360640190fd5b73ffffffffffffffffffffffffffffffffffffffff841660009081526006602090815260408083203384529091529020548211156106c257604080517f08c379a000000000000000000000000000000000000000000000000000000000815260206004820181905260248201527f4552524f525f4e4f545f454e4f5547485f414c4c4f5745445f42414c414e4345604482015290519081900360640190fd5b73ffffffffffffffffffffffffffffffffffffffff831661074457604080517f08c379a000000000000000000000000000000000000000000000000000000000815260206004820152601460248201527f4552524f525f524543495049454e545f5a45524f000000000000000000000000604482015290519081900360640190fd5b73ffffffffffffffffffffffffffffffffffffffff841660009081526005602052604090205461077a908363ffffffff610c5516565b73ffffffffffffffffffffffffffffffffffffffff80861660009081526005602052604080822093909355908516815220546107bc908363ffffffff610d3b16565b73ffffffffffffffffffffffffffffffffffffffff808516600090815260056020908152604080832094909455918716815260068252828120338252909152205461080d908363ffffffff610c5516565b73ffffffffffffffffffffffffffffffffffffffff808616600081815260066020908152604080832033845282529182902094909455805186815290519287169391927fddf252ad1be2c89b69c2b068fc378daa952ba7f163c4a11628f55a4df523b3ef929181900390910190a35060019392505050565b60025460ff1681565b73ffffffffffffffffffffffffffffffffffffffff1660009081526005602052604090205490565b6003546108c9908263ffffffff610d3b16565b60035573ffffffffffffffffffffffffffffffffffffffff8216600090815260056020526040902054610902908263ffffffff610d3b16565b73ffffffffffffffffffffffffffffffffffffffff831660008181526005602090815260408083209490945583518581529351929391927fddf252ad1be2c89b69c2b068fc378daa952ba7f163c4a11628f55a4df523b3ef9281900390910190a35050565b60018054604080516020600284861615610100027fffffffffffffffffffffffffffffffffffffffffffffffffffffffffffffffff0190941693909304601f810184900484028201840190925281815292918301828280156103c05780601f10610395576101008083540402835291602001916103c0565b60045460009060ff16610a5357604080517f08c379a000000000000000000000000000000000000000000000000000000000815260206004820152601b60248201527f4552524f525f5452414e53464552535f4e4f545f414c4c4f5745440000000000604482015290519081900360640190fd5b33600090815260056020526040902054821115610ad157604080517f08c379a000000000000000000000000000000000000000000000000000000000815260206004820152601860248201527f4552524f525f4e4f545f454e4f5547485f42414c414e43450000000000000000604482015290519081900360640190fd5b73ffffffffffffffffffffffffffffffffffffffff8316610b5357604080517f08c379a000000000000000000000000000000000000000000000000000000000815260206004820152601460248201527f4552524f525f524543495049454e545f5a45524f000000000000000000000000604482015290519081900360640190fd5b33600090815260056020526040902054610b73908363ffffffff610c5516565b336000908152600560205260408082209290925573ffffffffffffffffffffffffffffffffffffffff851681522054610bb2908363ffffffff610d3b16565b73ffffffffffffffffffffffffffffffffffffffff84166000818152600560209081526040918290209390935580518581529051919233927fddf252ad1be2c89b69c2b068fc378daa952ba7f163c4a11628f55a4df523b3ef9281900390910190a350600192915050565b73ffffffffffffffffffffffffffffffffffffffff918216600090815260066020908152604080832093909416825291909152205490565b6000828211156040518060400160405280601281526020017f4d4154485f5355425f554e444552464c4f57000000000000000000000000000081525090610d34576040517f08c379a00000000000000000000000000000000000000000000000000000000081526004018080602001828103825283818151815260200191508051906020019080838360005b83811015610cf9578181015183820152602001610ce1565b50505050905090810190601f168015610d265780820380516001836020036101000a031916815260200191505b509250505060405180910390fd5b5050900390565b60408051808201909152601181527f4d4154485f4144445f4f564552464c4f5700000000000000000000000000000060208201526000908383019084821015610ddf576040517f08c379a0000000000000000000000000000000000000000000000000000000008152602060048201818152835160248401528351909283926044909101919085019080838360008315610cf9578181015183820152602001610ce1565b50939250505056fea165627a7a723058207a352d41bee16c0f28f865d88bb70c8f41821c917b0f264413bb02576ace77a80029",
  "source": "pragma solidity ^0.5.8;\n\nimport \"../os/SafeMath.sol\";\n\n\ncontract ERC20Mock {\n    using SafeMath for uint256;\n\n    string public name;\n    string public symbol;\n    uint8 public decimals;\n    uint256 public totalSupply;\n\n    bool private allowTransfer_;\n    mapping (address => uint256) private balances;\n    mapping (address => mapping (address => uint256)) private allowed;\n\n    event Approval(address indexed owner, address indexed spender, uint256 value);\n    event Transfer(address indexed from, address indexed to, uint256 value);\n\n    constructor(string memory _name, string memory _symbol, uint8 _decimals) public {\n        name = _name;\n        symbol = _symbol;\n        decimals = _decimals;\n        allowTransfer_ = true;\n    }\n\n    /**\n    * @dev Mint a certain amount of tokens for an address\n    * @param _to The address that will receive the tokens\n    * @param _amount The amount of tokens to be minted\n    */\n    function generateTokens(address _to, uint _amount) public {\n        totalSupply = totalSupply.add(_amount);\n        balances[_to] = balances[_to].add(_amount);\n        emit Transfer(address(0), _to, _amount);\n    }\n\n    /**\n    * @dev Gets the balance of the specified address.\n    * @param _owner The address to query the the balance of.\n    * @return The amount owned by the passed address.\n    */\n    function balanceOf(address _owner) public view returns (uint256) {\n        return balances[_owner];\n    }\n\n    /**\n    * @dev Function to check the amount of tokens that an owner allowed to a spender.\n    * @param _owner The address which owns the funds.\n    * @param _spender The address which will spend the funds.\n    * @return The amount of tokens still available for the spender.\n    */\n    function allowance(address _owner, address _spender) public view returns (uint256) {\n        return allowed[_owner][_spender];\n    }\n\n    /**\n    * @dev Set whether the token is transferable or not\n    * @param _allowTransfer Should token be transferable\n    */\n    function setAllowTransfer(bool _allowTransfer) public {\n        allowTransfer_ = _allowTransfer;\n    }\n\n    /**\n    * @dev Transfer token for a specified address\n    * @param _to The address to transfer to.\n    * @param _amount The amount to be transferred.\n    */\n    function transfer(address _to, uint256 _amount) public returns (bool) {\n        require(allowTransfer_, 'ERROR_TRANSFERS_NOT_ALLOWED');\n        require(_amount <= balances[msg.sender], 'ERROR_NOT_ENOUGH_BALANCE');\n        require(_to != address(0), 'ERROR_RECIPIENT_ZERO');\n\n        balances[msg.sender] = balances[msg.sender].sub(_amount);\n        balances[_to] = balances[_to].add(_amount);\n        emit Transfer(msg.sender, _to, _amount);\n        return true;\n    }\n\n    /**\n    * @dev Approve the passed address to spend the specified amount of tokens on behalf of msg.sender.\n    * Beware that changing an allowance with this method brings the risk that someone may use both the old\n    * and the new allowance by unfortunate transaction ordering. One possible solution to mitigate this\n    * race condition is to first reduce the spender's allowance to 0 and set the desired value afterwards:\n    * https://github.com/ethereum/EIPs/issues/20#issuecomment-263524729\n    * @param _spender The address which will spend the funds.\n    * @param _amount The amount of tokens to be spent.\n    */\n    function approve(address _spender, uint256 _amount) public returns (bool) {\n        // Assume we want to protect for the race condition\n        require(_amount == 0 || allowed[msg.sender][_spender] == 0, 'ERROR_ALLOWANCE_MUST_BE_ZERO');\n\n        allowed[msg.sender][_spender] = _amount;\n        emit Approval(msg.sender, _spender, _amount);\n        return true;\n    }\n\n    /**\n    * @dev Transfer tokens from one address to another\n    * @param _from The address which you want to send tokens from\n    * @param _to The address which you want to transfer to\n    * @param _amount The amount of tokens to be transferred\n    */\n    function transferFrom(address _from, address _to, uint256 _amount) public returns (bool) {\n        require(allowTransfer_, 'ERROR_TRANSFERS_NOT_ALLOWED');\n        require(_amount <= balances[_from], 'ERROR_NOT_ENOUGH_BALANCE');\n        require(_amount <= allowed[_from][msg.sender], 'ERROR_NOT_ENOUGH_ALLOWED_BALANCE');\n        require(_to != address(0), 'ERROR_RECIPIENT_ZERO');\n\n        balances[_from] = balances[_from].sub(_amount);\n        balances[_to] = balances[_to].add(_amount);\n        allowed[_from][msg.sender] = allowed[_from][msg.sender].sub(_amount);\n        emit Transfer(_from, _to, _amount);\n        return true;\n    }\n}\n",
  "sourcePath": "/Users/facu/Documents/work/aragon/dev/token-faucet/contracts/test/ERC20Mock.sol",
  "compiler": {
    "name": "solc",
    "version": "0.5.8+commit.23d335f2.Emscripten.clang"
  },
  "schemaVersion": "3.0.19",
  "updatedAt": "2019-12-15T11:19:27.052Z",
  "devdoc": {
    "methods": {
      "allowance(address,address)": {
        "details": "Function to check the amount of tokens that an owner allowed to a spender.",
        "params": {
          "_owner": "The address which owns the funds.",
          "_spender": "The address which will spend the funds."
        },
        "return": "The amount of tokens still available for the spender."
      },
      "approve(address,uint256)": {
        "details": "Approve the passed address to spend the specified amount of tokens on behalf of msg.sender. Beware that changing an allowance with this method brings the risk that someone may use both the old and the new allowance by unfortunate transaction ordering. One possible solution to mitigate this race condition is to first reduce the spender's allowance to 0 and set the desired value afterwards: https://github.com/ethereum/EIPs/issues/20#issuecomment-263524729",
        "params": {
          "_amount": "The amount of tokens to be spent.",
          "_spender": "The address which will spend the funds."
        }
      },
      "balanceOf(address)": {
        "details": "Gets the balance of the specified address.",
        "params": {
          "_owner": "The address to query the the balance of."
        },
        "return": "The amount owned by the passed address."
      },
      "generateTokens(address,uint256)": {
        "details": "Mint a certain amount of tokens for an address",
        "params": {
          "_amount": "The amount of tokens to be minted",
          "_to": "The address that will receive the tokens"
        }
      },
      "setAllowTransfer(bool)": {
        "details": "Set whether the token is transferable or not",
        "params": {
          "_allowTransfer": "Should token be transferable"
        }
      },
      "transfer(address,uint256)": {
        "details": "Transfer token for a specified address",
        "params": {
          "_amount": "The amount to be transferred.",
          "_to": "The address to transfer to."
        }
      },
      "transferFrom(address,address,uint256)": {
        "details": "Transfer tokens from one address to another",
        "params": {
          "_amount": "The amount of tokens to be transferred",
          "_from": "The address which you want to send tokens from",
          "_to": "The address which you want to transfer to"
        }
      }
    }
  },
  "userdoc": {
    "methods": {}
  }
}