{
  "contractName": "ERC20Faucet",
  "abi": [
    {
      "constant": true,
      "inputs": [],
      "name": "getOwner",
      "outputs": [
        {
          "name": "",
          "type": "address"
        }
      ],
      "payable": false,
      "stateMutability": "view",
      "type": "function"
    },
    {
      "constant": false,
      "inputs": [
        {
          "name": "_newOwner",
          "type": "address"
        }
      ],
      "name": "transferOwnership",
      "outputs": [],
      "payable": false,
      "stateMutability": "nonpayable",
      "type": "function"
    },
    {
      "inputs": [
        {
          "name": "_tokens",
          "type": "address[]"
        },
        {
          "name": "_periods",
          "type": "uint256[]"
        },
        {
          "name": "_amounts",
          "type": "uint256[]"
        }
      ],
      "payable": false,
      "stateMutability": "nonpayable",
      "type": "constructor"
    },
    {
      "anonymous": false,
      "inputs": [
        {
          "indexed": true,
          "name": "token",
          "type": "address"
        },
        {
          "indexed": false,
          "name": "period",
          "type": "uint256"
        },
        {
          "indexed": false,
          "name": "amount",
          "type": "uint256"
        }
      ],
      "name": "TokenQuotaSet",
      "type": "event"
    },
    {
      "anonymous": false,
      "inputs": [
        {
          "indexed": true,
          "name": "token",
          "type": "address"
        },
        {
          "indexed": true,
          "name": "donor",
          "type": "address"
        },
        {
          "indexed": false,
          "name": "amount",
          "type": "uint256"
        },
        {
          "indexed": false,
          "name": "totalSupply",
          "type": "uint256"
        }
      ],
      "name": "TokensDonated",
      "type": "event"
    },
    {
      "anonymous": false,
      "inputs": [
        {
          "indexed": true,
          "name": "token",
          "type": "address"
        },
        {
          "indexed": true,
          "name": "account",
          "type": "address"
        },
        {
          "indexed": false,
          "name": "amount",
          "type": "uint256"
        },
        {
          "indexed": false,
          "name": "totalSupply",
          "type": "uint256"
        }
      ],
      "name": "TokensWithdrawn",
      "type": "event"
    },
    {
      "anonymous": false,
      "inputs": [
        {
          "indexed": true,
          "name": "previousOwner",
          "type": "address"
        },
        {
          "indexed": true,
          "name": "newOwner",
          "type": "address"
        }
      ],
      "name": "OwnershipTransferred",
      "type": "event"
    },
    {
      "constant": false,
      "inputs": [
        {
          "name": "_token",
          "type": "address"
        },
        {
          "name": "_amount",
          "type": "uint256"
        }
      ],
      "name": "donate",
      "outputs": [],
      "payable": false,
      "stateMutability": "nonpayable",
      "type": "function"
    },
    {
      "constant": false,
      "inputs": [
        {
          "name": "_token",
          "type": "address"
        },
        {
          "name": "_amount",
          "type": "uint256"
        }
      ],
      "name": "withdraw",
      "outputs": [],
      "payable": false,
      "stateMutability": "nonpayable",
      "type": "function"
    },
    {
      "constant": false,
      "inputs": [
        {
          "name": "_tokens",
          "type": "address[]"
        },
        {
          "name": "_periods",
          "type": "uint256[]"
        },
        {
          "name": "_amounts",
          "type": "uint256[]"
        }
      ],
      "name": "setQuotas",
      "outputs": [],
      "payable": false,
      "stateMutability": "nonpayable",
      "type": "function"
    },
    {
      "constant": true,
      "inputs": [],
      "name": "getStartDate",
      "outputs": [
        {
          "name": "",
          "type": "uint256"
        }
      ],
      "payable": false,
      "stateMutability": "view",
      "type": "function"
    },
    {
      "constant": true,
      "inputs": [
        {
          "name": "_token",
          "type": "address"
        }
      ],
      "name": "getQuota",
      "outputs": [
        {
          "name": "period",
          "type": "uint256"
        },
        {
          "name": "amount",
          "type": "uint256"
        }
      ],
      "payable": false,
      "stateMutability": "view",
      "type": "function"
    },
    {
      "constant": true,
      "inputs": [
        {
          "name": "_token",
          "type": "address"
        }
      ],
      "name": "getTotalSupply",
      "outputs": [
        {
          "name": "",
          "type": "uint256"
        }
      ],
      "payable": false,
      "stateMutability": "view",
      "type": "function"
    },
    {
      "constant": true,
      "inputs": [
        {
          "name": "_account",
          "type": "address"
        },
        {
          "name": "_token",
          "type": "address"
        }
      ],
      "name": "getWithdrawal",
      "outputs": [
        {
          "name": "id",
          "type": "uint256"
        },
        {
          "name": "amount",
          "type": "uint256"
        }
      ],
      "payable": false,
      "stateMutability": "view",
      "type": "function"
    }
  ],
  "bytecode": "0x60806040523480156200001157600080fd5b5060405162001a7838038062001a78833981018060405260608110156200003757600080fd5b8101908080516401000000008111156200005057600080fd5b820160208101848111156200006457600080fd5b81518560208202830111640100000000821117156200008257600080fd5b505092919060200180516401000000008111156200009f57600080fd5b82016020810184811115620000b357600080fd5b8151856020820283011164010000000082111715620000d157600080fd5b50509291906020018051640100000000811115620000ee57600080fd5b820160208101848111156200010257600080fd5b81518560208202830111640100000000821117156200012057600080fd5b505092919050505062000139336200016960201b60201c565b62000149620001c460201b60201c565b60015562000160838383620001c8602090811b901c565b5050506200055b565b600080546040516001600160a01b03808516939216917f8be0079c531659141344cd1fd0a4f28419497f9722a3daafe3b4186f6b6457e091a3600080546001600160a01b0319166001600160a01b0392909216919091179055565b4290565b81518351146040518060400160405280601c81526020017f4641554345545f494e56414c49445f51554f5441535f4c454e4754480000000081525090620002aa576040517f08c379a00000000000000000000000000000000000000000000000000000000081526004018080602001828103825283818151815260200191508051906020019080838360005b838110156200026e57818101518382015260200162000254565b50505050905090810190601f1680156200029c5780820380516001836020036101000a031916815260200191505b509250505060405180910390fd5b5080518351146040518060400160405280601c81526020017f4641554345545f494e56414c49445f51554f5441535f4c454e47544800000000815250906200034f576040517f08c379a00000000000000000000000000000000000000000000000000000000081526020600482018181528351602484015283519092839260449091019190850190808383600083156200026e57818101518382015260200162000254565b5060005b8351811015620003b557620003ac8482815181106200036e57fe5b60200260200101518483815181106200038357fe5b60200260200101518484815181106200039857fe5b6020026020010151620003bb60201b60201c565b60010162000353565b50505050565b60408051808201909152601881527f4641554345545f51554f54415f504552494f445f5a45524f000000000000000060208201528262000458576040517f08c379a00000000000000000000000000000000000000000000000000000000081526020600482018181528351602484015283519092839260449091019190850190808383600083156200026e57818101518382015260200162000254565b5060408051808201909152601881527f4641554345545f51554f54415f414d4f554e545f5a45524f0000000000000000602082015281620004f6576040517f08c379a00000000000000000000000000000000000000000000000000000000081526020600482018181528351602484015283519092839260449091019190850190808383600083156200026e57818101518382015260200162000254565b506001600160a01b03831660008181526002602090815260409182902085815560018101859055825186815291820185905282519093927fda01cca05a1edc249ac6ec8a9af5b776b4957a44cb4e0198caba683d76f7b103928290030190a250505050565b61150d806200056b6000396000f3fe608060405234801561001057600080fd5b50600436106100a35760003560e01c8063a4fd900811610076578063e69d849d1161005b578063e69d849d146102c3578063f2fde38b146102fc578063f3fef3a31461032f576100a3565b8063a4fd900814610172578063be26764b146101ad576100a3565b806343a2a302146100a857806368da10ae146100f457806378f305c614610139578063893d20e814610141575b600080fd5b6100db600480360360208110156100be57600080fd5b503573ffffffffffffffffffffffffffffffffffffffff16610368565b6040805192835260208301919091528051918290030190f35b6101276004803603602081101561010a57600080fd5b503573ffffffffffffffffffffffffffffffffffffffff16610398565b60408051918252519081900360200190f35b6101276103c0565b6101496103c6565b6040805173ffffffffffffffffffffffffffffffffffffffff9092168252519081900360200190f35b6100db6004803603604081101561018857600080fd5b5073ffffffffffffffffffffffffffffffffffffffff813581169160200135166103e2565b6102c1600480360360608110156101c357600080fd5b8101906020810181356401000000008111156101de57600080fd5b8201836020820111156101f057600080fd5b8035906020019184602083028401116401000000008311171561021257600080fd5b91939092909160208101903564010000000081111561023057600080fd5b82018360208201111561024257600080fd5b8035906020019184602083028401116401000000008311171561026457600080fd5b91939092909160208101903564010000000081111561028257600080fd5b82018360208201111561029457600080fd5b803590602001918460208302840111640100000000831117156102b657600080fd5b509092509050610421565b005b6102c1600480360360408110156102d957600080fd5b5073ffffffffffffffffffffffffffffffffffffffff81351690602001356105ba565b6102c16004803603602081101561031257600080fd5b503573ffffffffffffffffffffffffffffffffffffffff166107f3565b6102c16004803603604081101561034557600080fd5b5073ffffffffffffffffffffffffffffffffffffffff8135169060200135610966565b73ffffffffffffffffffffffffffffffffffffffff16600090815260026020526040902080546001909101549091565b73ffffffffffffffffffffffffffffffffffffffff1660009081526003602052604090205490565b60015490565b60005473ffffffffffffffffffffffffffffffffffffffff1690565b73ffffffffffffffffffffffffffffffffffffffff91821660009081526004602090815260408083209390941682526001830190529190912054905491565b60005460408051808201909152601881527f4f574e41424c455f53454e4445525f4e4f545f4f574e4552000000000000000060208201529073ffffffffffffffffffffffffffffffffffffffff163314610513576040517f08c379a00000000000000000000000000000000000000000000000000000000081526004018080602001828103825283818151815260200191508051906020019080838360005b838110156104d85781810151838201526020016104c0565b50505050905090810190601f1680156105055780820380516001836020036101000a031916815260200191505b509250505060405180910390fd5b506105b286868080602002602001604051908101604052809392919081815260200183836020028082843760009201919091525050604080516020808a0282810182019093528982529093508992508891829185019084908082843760009201919091525050604080516020808902828101820190935288825290935088925087918291850190849080828437600092019190915250610d6092505050565b505050505050565b73ffffffffffffffffffffffffffffffffffffffff8216600090815260026020908152604091829020600101548251808401909352601883527f4641554345545f51554f54415f414d4f554e545f5a45524f000000000000000091830191909152839190610683576040517f08c379a00000000000000000000000000000000000000000000000000000000081526020600482018181528351602484015283519092839260449091019190850190808383600083156104d85781810151838201526020016104c0565b5073ffffffffffffffffffffffffffffffffffffffff81166000908152600360205260408120546106ba908463ffffffff610f0216565b73ffffffffffffffffffffffffffffffffffffffff808416600090815260036020908152604091829020849055815187815290810184905281519394503393928816927f23818a79f4abb49adf42858bf1166f15816750b77dfaa19595f4de03e3e31584929181900390910190a361075073ffffffffffffffffffffffffffffffffffffffff851633308663ffffffff610fae16565b6040518060400160405280601681526020017f4641554345545f5452414e534645525f4641494c454400000000000000000000815250906107ec576040517f08c379a00000000000000000000000000000000000000000000000000000000081526020600482018181528351602484015283519092839260449091019190850190808383600083156104d85781810151838201526020016104c0565b5050505050565b60005460408051808201909152601881527f4f574e41424c455f53454e4445525f4e4f545f4f574e4552000000000000000060208201529073ffffffffffffffffffffffffffffffffffffffff1633146108a8576040517f08c379a00000000000000000000000000000000000000000000000000000000081526020600482018181528351602484015283519092839260449091019190850190808383600083156104d85781810151838201526020016104c0565b5060408051808201909152601e81527f4f574e41424c455f4e45575f4f574e45525f414444524553535f5a45524f0000602082015273ffffffffffffffffffffffffffffffffffffffff8216610959576040517f08c379a00000000000000000000000000000000000000000000000000000000081526020600482018181528351602484015283519092839260449091019190850190808383600083156104d85781810151838201526020016104c0565b506109638161104f565b50565b73ffffffffffffffffffffffffffffffffffffffff8216600090815260036020908152604091829020548251808401909352601883527f4641554345545f4e4f545f454e4f5547485f535550504c59000000000000000091830191909152839183821015610a2f576040517f08c379a00000000000000000000000000000000000000000000000000000000081526020600482018181528351602484015283519092839260449091019190850190808383600083156104d85781810151838201526020016104c0565b50336000908152600460209081526040808320805473ffffffffffffffffffffffffffffffffffffffff8716855260029093529083209092610a70826110dc565b9050808311156040518060400160405280601981526020017f4641554345545f4655545552455f4c4153545f504552494f440000000000000081525090610b12576040517f08c379a00000000000000000000000000000000000000000000000000000000081526020600482018181528351602484015283519092839260449091019190850190808383600083156104d85781810151838201526020016104c0565b5073ffffffffffffffffffffffffffffffffffffffff8616600090815260018501602052604081205490848314610b495788610b59565b610b59828a63ffffffff610f0216565b905083600101548111156040518060400160405280601b81526020017f4641554345545f414d4f554e545f455843454544535f51554f5441000000000081525090610bff576040517f08c379a00000000000000000000000000000000000000000000000000000000081526020600482018181528351602484015283519092839260449091019190850190808383600083156104d85781810151838201526020016104c0565b506000610c12888b63ffffffff6111aa16565b73ffffffffffffffffffffffffffffffffffffffff808b166000908152600360209081526040808320859055888c5560018c0182529182902086905581518e815290810184905281519394503393928f16927f6b83b455c317523498e4e86849438d4356ad79ba6b355a5e6d5bc05eca6c780f929181900390910190a3610cb673ffffffffffffffffffffffffffffffffffffffff8c16338c63ffffffff61125316565b6040518060400160405280601681526020017f4641554345545f5452414e534645525f4641494c45440000000000000000000081525090610d52576040517f08c379a00000000000000000000000000000000000000000000000000000000081526020600482018181528351602484015283519092839260449091019190850190808383600083156104d85781810151838201526020016104c0565b505050505050505050505050565b81518351146040518060400160405280601c81526020017f4641554345545f494e56414c49445f51554f5441535f4c454e4754480000000081525090610e01576040517f08c379a00000000000000000000000000000000000000000000000000000000081526020600482018181528351602484015283519092839260449091019190850190808383600083156104d85781810151838201526020016104c0565b5080518351146040518060400160405280601c81526020017f4641554345545f494e56414c49445f51554f5441535f4c454e4754480000000081525090610ea3576040517f08c379a00000000000000000000000000000000000000000000000000000000081526020600482018181528351602484015283519092839260449091019190850190808383600083156104d85781810151838201526020016104c0565b5060005b8351811015610efc57610ef4848281518110610ebf57fe5b6020026020010151848381518110610ed357fe5b6020026020010151848481518110610ee757fe5b60200260200101516112eb565b600101610ea7565b50505050565b60408051808201909152601181527f4d4154485f4144445f4f564552464c4f5700000000000000000000000000000060208201526000908383019084821015610fa6576040517f08c379a00000000000000000000000000000000000000000000000000000000081526020600482018181528351602484015283519092839260449091019190850190808383600083156104d85781810151838201526020016104c0565b509392505050565b6040805173ffffffffffffffffffffffffffffffffffffffff85811660248301528416604482015260648082018490528251808303909101815260849091019091526020810180517bffffffffffffffffffffffffffffffffffffffffffffffffffffffff167f23b872dd000000000000000000000000000000000000000000000000000000001790526000906110458682611492565b9695505050505050565b6000805460405173ffffffffffffffffffffffffffffffffffffffff808516939216917f8be0079c531659141344cd1fd0a4f28419497f9722a3daafe3b4186f6b6457e091a3600080547fffffffffffffffffffffffff00000000000000000000000000000000000000001673ffffffffffffffffffffffffffffffffffffffff92909216919091179055565b600154600090816110eb6114dd565b9050818110156040518060400160405280601881526020017f4641554345545f4655545552455f53544152545f4441544500000000000000008152509061118d576040517f08c379a00000000000000000000000000000000000000000000000000000000081526020600482018181528351602484015283519092839260449091019190850190808383600083156104d85781810151838201526020016104c0565b50835482820390600090828161119f57fe5b049695505050505050565b6000828211156040518060400160405280601281526020017f4d4154485f5355425f554e444552464c4f5700000000000000000000000000008152509061124c576040517f08c379a00000000000000000000000000000000000000000000000000000000081526020600482018181528351602484015283519092839260449091019190850190808383600083156104d85781810151838201526020016104c0565b5050900390565b6040805173ffffffffffffffffffffffffffffffffffffffff8416602482015260448082018490528251808303909101815260649091019091526020810180517bffffffffffffffffffffffffffffffffffffffffffffffffffffffff167fa9059cbb000000000000000000000000000000000000000000000000000000001790526000906112e28582611492565b95945050505050565b60408051808201909152601881527f4641554345545f51554f54415f504552494f445f5a45524f0000000000000000602082015282611385576040517f08c379a00000000000000000000000000000000000000000000000000000000081526020600482018181528351602484015283519092839260449091019190850190808383600083156104d85781810151838201526020016104c0565b5060408051808201909152601881527f4641554345545f51554f54415f414d4f554e545f5a45524f0000000000000000602082015281611420576040517f08c379a00000000000000000000000000000000000000000000000000000000081526020600482018181528351602484015283519092839260449091019190850190808383600083156104d85781810151838201526020016104c0565b5073ffffffffffffffffffffffffffffffffffffffff831660008181526002602090815260409182902085815560018101859055825186815291820185905282519093927fda01cca05a1edc249ac6ec8a9af5b776b4957a44cb4e0198caba683d76f7b103928290030190a250505050565b6000806040516020818551602087016000895af180156114d3573d80156114c057602081146114c9576114d1565b600193506114d1565b600183511493505b505b5090949350505050565b429056fea165627a7a72305820bce8218c4d00eaf0aba2eb29f7e55f792611438f1ef618411971dbdc10fe25aa0029",
  "source": "pragma solidity ^0.5.8;\n\nimport \"./Ownable.sol\";\nimport \"./os/ERC20.sol\";\nimport \"./os/SafeMath.sol\";\nimport \"./os/SafeERC20.sol\";\nimport \"./os/TimeHelpers.sol\";\n\n\ncontract ERC20Faucet is Ownable, TimeHelpers {\n    using SafeMath for uint256;\n    using SafeERC20 for ERC20;\n\n    string private constant ERROR_QUOTA_AMOUNT_ZERO = \"FAUCET_QUOTA_AMOUNT_ZERO\";\n    string private constant ERROR_QUOTA_PERIOD_ZERO = \"FAUCET_QUOTA_PERIOD_ZERO\";\n    string private constant ERROR_TRANSFER_FAILED = \"FAUCET_TRANSFER_FAILED\";\n    string private constant ERROR_NOT_ENOUGH_SUPPLY = \"FAUCET_NOT_ENOUGH_SUPPLY\";\n    string private constant ERROR_FUTURE_START_DATE = \"FAUCET_FUTURE_START_DATE\";\n    string private constant ERROR_FUTURE_LAST_PERIOD = \"FAUCET_FUTURE_LAST_PERIOD\";\n    string private constant ERROR_AMOUNT_EXCEEDS_QUOTA = \"FAUCET_AMOUNT_EXCEEDS_QUOTA\";\n    string private constant ERROR_INVALID_QUOTAS_LENGTH = \"FAUCET_INVALID_QUOTAS_LENGTH\";\n\n    struct Quota {\n        uint256 period;\n        uint256 amount;\n    }\n\n    struct Withdrawal {\n        uint256 lastPeriodId;\n        mapping (address => uint256) lastPeriodAmount;\n    }\n\n    uint256 private startDate;\n    mapping (address => Quota) private tokenQuotas;\n    mapping (address => uint256) private supplyByToken;\n    mapping (address => Withdrawal) private withdrawals;\n\n    event TokenQuotaSet(ERC20 indexed token, uint256 period, uint256 amount);\n    event TokensDonated(ERC20 indexed token, address indexed donor, uint256 amount, uint256 totalSupply);\n    event TokensWithdrawn(ERC20 indexed token, address indexed account, uint256 amount, uint256 totalSupply);\n\n    /**\n    * @notice Initialize faucet\n    * @param _tokens List of ERC20 tokens to be set\n    * @param _periods List of periods length for each ERC20 token quota\n    * @param _amounts List of quota amounts for each ERC20 token\n    */\n    constructor (ERC20[] memory _tokens, uint256[] memory _periods, uint256[] memory _amounts) Ownable() public {\n        startDate = getTimestamp();\n        _setQuotas(_tokens, _periods, _amounts);\n    }\n\n    /**\n    * @notice Donate `@tokenAmount(_token, _amount)`\n    * @param _token ERC20 token being deposited\n    * @param _token Amount being deposited\n    */\n    function donate(ERC20 _token, uint256 _amount) external {\n        address tokenAddress = address(_token);\n        require(tokenQuotas[tokenAddress].amount > 0, ERROR_QUOTA_AMOUNT_ZERO);\n\n        uint256 totalSupply = supplyByToken[tokenAddress].add(_amount);\n        supplyByToken[tokenAddress] = totalSupply;\n\n        emit TokensDonated(_token, msg.sender, _amount, totalSupply);\n        require(_token.safeTransferFrom(msg.sender, address(this), _amount), ERROR_TRANSFER_FAILED);\n    }\n\n    /**\n    * @notice Withdraw `@tokenAmount(_token, _amount)`\n    * @param _token ERC20 token being withdrawn\n    * @param _token Amount being withdrawn\n    */\n    function withdraw(ERC20 _token, uint256 _amount) external {\n        // Check there are enough tokens\n        address tokenAddress = address(_token);\n        uint256 totalSupply = supplyByToken[tokenAddress];\n        require(totalSupply >= _amount, ERROR_NOT_ENOUGH_SUPPLY);\n\n        // If the last period is in the future, something went wrong somewhere\n        Withdrawal storage withdrawal = withdrawals[msg.sender];\n        uint256 lastPeriodId = withdrawal.lastPeriodId;\n        Quota storage quota = tokenQuotas[tokenAddress];\n        uint256 currentPeriodId = _getCurrentPeriodId(quota);\n        require(lastPeriodId <= currentPeriodId, ERROR_FUTURE_LAST_PERIOD);\n\n        // Check withdrawal amount does not exceed period quota based on current period\n        uint256 lastPeriodAmount = withdrawal.lastPeriodAmount[tokenAddress];\n        uint256 newPeriodAmount = (lastPeriodId == currentPeriodId) ? lastPeriodAmount.add(_amount) : _amount;\n        require(newPeriodAmount <= quota.amount, ERROR_AMOUNT_EXCEEDS_QUOTA);\n\n        // Update withdrawal and transfer tokens\n        uint256 newTotalSupply = totalSupply.sub(_amount);\n        supplyByToken[tokenAddress] = newTotalSupply;\n        withdrawal.lastPeriodId = currentPeriodId;\n        withdrawal.lastPeriodAmount[tokenAddress] = newPeriodAmount;\n\n        // Transfer tokens\n        emit TokensWithdrawn(_token, msg.sender, _amount, newTotalSupply);\n        require(_token.safeTransfer(msg.sender, _amount), ERROR_TRANSFER_FAILED);\n    }\n\n    /**\n    * @notice Set a list of token quotas\n    * @param _tokens List of ERC20 tokens to be set\n    * @param _periods List of periods length for each ERC20 token quota\n    * @param _amounts List of quota amounts for each ERC20 token\n    */\n    function setQuotas(ERC20[] calldata _tokens, uint256[] calldata _periods, uint256[] calldata _amounts) external onlyOwner {\n        _setQuotas(_tokens, _periods, _amounts);\n    }\n\n    /**\n    * @dev Tell the start date of the faucet\n    * @return Start date of the faucet\n    */\n    function getStartDate() external view returns (uint256) {\n        return startDate;\n    }\n\n    /**\n    * @dev Tell the quota information for a certain token\n    * @param _token ERC20 token being queried\n    * @return period Periods length for the requested ERC20 token quota\n    * @return amount Quota amount for the requested ERC20 token\n    */\n    function getQuota(ERC20 _token) external view returns (uint256 period, uint256 amount) {\n        Quota storage quota = tokenQuotas[address(_token)];\n        return (quota.period, quota.amount);\n    }\n\n    /**\n    * @dev Tell the total supply of the faucet for a certain ERC20 token\n    * @param _token ERC20 token being queried\n    * @return Total supply of the faucet for the requested ERC20 token\n    */\n    function getTotalSupply(ERC20 _token) external view returns (uint256) {\n        return supplyByToken[address(_token)];\n    }\n\n    /**\n    * @dev Tell the last period withdrawals of an ERC20 token for a certain account\n    * @param _account Address of the account being queried\n    * @param _token ERC20 token being queried\n    * @return id ID of the last period when the requested account withdraw a certain amount\n    * @return amount Amount withdrawn by the requested account during the last period\n    */\n    function getWithdrawal(address _account, ERC20 _token) external view returns (uint256 id, uint256 amount) {\n        Withdrawal storage withdrawal = withdrawals[_account];\n        uint256 lastPeriodAmount = withdrawal.lastPeriodAmount[address(_token)];\n        return (withdrawal.lastPeriodId, lastPeriodAmount);\n    }\n\n    /**\n    * @dev Internal function to set a list of token quotas\n    * @param _tokens List of ERC20 tokens to be set\n    * @param _periods List of periods length for each ERC20 token quota\n    * @param _amounts List of quota amounts for each ERC20 token\n    */\n    function _setQuotas(ERC20[] memory _tokens, uint256[] memory _periods, uint256[] memory _amounts) internal {\n        require(_tokens.length == _periods.length, ERROR_INVALID_QUOTAS_LENGTH);\n        require(_tokens.length == _amounts.length, ERROR_INVALID_QUOTAS_LENGTH);\n\n        for (uint256 i = 0; i < _tokens.length; i++) {\n            _setQuota(_tokens[i], _periods[i], _amounts[i]);\n        }\n    }\n\n    /**\n    * @dev Internal function to set a token quota\n    * @param _token ERC20 token to be set\n    * @param _period Periods length for the ERC20 token quota\n    * @param _amount Quota amount for the ERC20 token\n    */\n    function _setQuota(ERC20 _token, uint256 _period, uint256 _amount) internal {\n        require(_period > 0, ERROR_QUOTA_PERIOD_ZERO);\n        require(_amount > 0, ERROR_QUOTA_AMOUNT_ZERO);\n\n        Quota storage quota = tokenQuotas[address(_token)];\n        quota.period = _period;\n        quota.amount = _amount;\n        emit TokenQuotaSet(_token, _period, _amount);\n    }\n\n    /**\n    * @dev Internal function to get the current period ID of a certain token quota\n    * @param _quota ERC20 token quota being queried\n    * @return ID of the current period for the given token quota based on the current timestamp\n    */\n    function _getCurrentPeriodId(Quota storage _quota) internal view returns (uint256) {\n        // Check the faucet has already started\n        uint256 startTimestamp = startDate;\n        uint256 currentTimestamp = getTimestamp();\n        require(currentTimestamp >= startTimestamp, ERROR_FUTURE_START_DATE);\n\n        // No need for SafeMath: we already checked current timestamp is greater than or equal to start date\n        uint256 timeDiff = currentTimestamp - startTimestamp;\n        uint256 currentPeriodId = timeDiff / _quota.period;\n        return currentPeriodId;\n    }\n}\n",
  "sourcePath": "/Users/facu/Documents/work/aragon/dev/token-faucet/contracts/ERC20Faucet.sol",
  "compiler": {
    "name": "solc",
    "version": "0.5.8+commit.23d335f2.Emscripten.clang"
  },
  "schemaVersion": "3.0.19",
  "updatedAt": "2019-12-15T15:17:07.103Z",
  "devdoc": {
    "methods": {
      "constructor": {
        "params": {
          "_amounts": "List of quota amounts for each ERC20 token",
          "_periods": "List of periods length for each ERC20 token quota",
          "_tokens": "List of ERC20 tokens to be set"
        }
      },
      "donate(address,uint256)": {
        "params": {
          "_token": "Amount being deposited"
        }
      },
      "getQuota(address)": {
        "details": "Tell the quota information for a certain token",
        "params": {
          "_token": "ERC20 token being queried"
        },
        "return": "period Periods length for the requested ERC20 token quotaamount Quota amount for the requested ERC20 token"
      },
      "getStartDate()": {
        "details": "Tell the start date of the faucet",
        "return": "Start date of the faucet"
      },
      "getTotalSupply(address)": {
        "details": "Tell the total supply of the faucet for a certain ERC20 token",
        "params": {
          "_token": "ERC20 token being queried"
        },
        "return": "Total supply of the faucet for the requested ERC20 token"
      },
      "getWithdrawal(address,address)": {
        "details": "Tell the last period withdrawals of an ERC20 token for a certain account",
        "params": {
          "_account": "Address of the account being queried",
          "_token": "ERC20 token being queried"
        },
        "return": "id ID of the last period when the requested account withdraw a certain amountamount Amount withdrawn by the requested account during the last period"
      },
      "setQuotas(address[],uint256[],uint256[])": {
        "params": {
          "_amounts": "List of quota amounts for each ERC20 token",
          "_periods": "List of periods length for each ERC20 token quota",
          "_tokens": "List of ERC20 tokens to be set"
        }
      },
      "withdraw(address,uint256)": {
        "params": {
          "_token": "Amount being withdrawn"
        }
      }
    }
  },
  "userdoc": {
    "methods": {
      "constructor": "Initialize faucet",
      "donate(address,uint256)": {
        "notice": "Donate `@tokenAmount(_token, _amount)`"
      },
      "setQuotas(address[],uint256[],uint256[])": {
        "notice": "Set a list of token quotas"
      },
      "withdraw(address,uint256)": {
        "notice": "Withdraw `@tokenAmount(_token, _amount)`"
      }
    }
  }
}