{
  "contractName": "Ownable",
  "abi": [
    {
      "inputs": [],
      "payable": false,
      "stateMutability": "nonpayable",
      "type": "constructor"
    },
    {
      "anonymous": false,
      "inputs": [
        {
          "indexed": true,
          "name": "previousOwner",
          "type": "address"
        },
        {
          "indexed": true,
          "name": "newOwner",
          "type": "address"
        }
      ],
      "name": "OwnershipTransferred",
      "type": "event"
    },
    {
      "constant": false,
      "inputs": [
        {
          "name": "_newOwner",
          "type": "address"
        }
      ],
      "name": "transferOwnership",
      "outputs": [],
      "payable": false,
      "stateMutability": "nonpayable",
      "type": "function"
    },
    {
      "constant": true,
      "inputs": [],
      "name": "getOwner",
      "outputs": [
        {
          "name": "",
          "type": "address"
        }
      ],
      "payable": false,
      "stateMutability": "view",
      "type": "function"
    }
  ],
  "bytecode": "0x608060405234801561001057600080fd5b506100203361002560201b60201c565b610080565b600080546040516001600160a01b03808516939216917f8be0079c531659141344cd1fd0a4f28419497f9722a3daafe3b4186f6b6457e091a3600080546001600160a01b0319166001600160a01b0392909216919091179055565b6103268061008f6000396000f3fe608060405234801561001057600080fd5b50600436106100365760003560e01c8063893d20e81461003b578063f2fde38b1461006c575b600080fd5b6100436100a1565b6040805173ffffffffffffffffffffffffffffffffffffffff9092168252519081900360200190f35b61009f6004803603602081101561008257600080fd5b503573ffffffffffffffffffffffffffffffffffffffff166100bd565b005b60005473ffffffffffffffffffffffffffffffffffffffff1690565b60005460408051808201909152601881527f4f574e41424c455f53454e4445525f4e4f545f4f574e4552000000000000000060208201529073ffffffffffffffffffffffffffffffffffffffff1633146101af576040517f08c379a00000000000000000000000000000000000000000000000000000000081526004018080602001828103825283818151815260200191508051906020019080838360005b8381101561017457818101518382015260200161015c565b50505050905090810190601f1680156101a15780820380516001836020036101000a031916815260200191505b509250505060405180910390fd5b5060408051808201909152601e81527f4f574e41424c455f4e45575f4f574e45525f414444524553535f5a45524f0000602082015273ffffffffffffffffffffffffffffffffffffffff8216610260576040517f08c379a000000000000000000000000000000000000000000000000000000000815260206004820181815283516024840152835190928392604490910191908501908083836000831561017457818101518382015260200161015c565b5061026a8161026d565b50565b6000805460405173ffffffffffffffffffffffffffffffffffffffff808516939216917f8be0079c531659141344cd1fd0a4f28419497f9722a3daafe3b4186f6b6457e091a3600080547fffffffffffffffffffffffff00000000000000000000000000000000000000001673ffffffffffffffffffffffffffffffffffffffff9290921691909117905556fea165627a7a72305820e7d67a03bc569661fc0104863b28e7fda5fa2019cfe6b00b9bccff1dfa9db5220029",
  "source": "pragma solidity ^0.5.8;\n\n\ncontract Ownable {\n    string private constant ERROR_SENDER_NOT_OWNER = \"OWNABLE_SENDER_NOT_OWNER\";\n    string private constant ERROR_NEW_OWNER_ADDRESS_ZERO = \"OWNABLE_NEW_OWNER_ADDRESS_ZERO\";\n\n    address private owner;\n\n    event OwnershipTransferred(address indexed previousOwner, address indexed newOwner);\n\n    modifier onlyOwner() {\n        require(msg.sender == owner, ERROR_SENDER_NOT_OWNER);\n        _;\n    }\n\n    constructor () public {\n        _setOwner(msg.sender);\n    }\n\n    function transferOwnership(address _newOwner) external onlyOwner {\n        require(_newOwner != address(0), ERROR_NEW_OWNER_ADDRESS_ZERO);\n        _setOwner(_newOwner);\n    }\n\n    function getOwner() external view returns (address) {\n        return owner;\n    }\n\n    function _setOwner(address _newOwner) private {\n        emit OwnershipTransferred(owner, _newOwner);\n        owner = _newOwner;\n    }\n}\n",
  "sourcePath": "/Users/facu/Documents/work/aragon/dev/token-faucet/contracts/Ownable.sol",
  "compiler": {
    "name": "solc",
    "version": "0.5.8+commit.23d335f2.Emscripten.clang"
  },
  "schemaVersion": "3.0.19",
  "updatedAt": "2019-12-15T11:19:27.046Z",
  "devdoc": {
    "methods": {}
  },
  "userdoc": {
    "methods": {}
  }
}