{
  "contractName": "TimeHelpersMock",
  "abi": [
    {
      "constant": true,
      "inputs": [],
      "name": "getBlockNumberExt",
      "outputs": [
        {
          "name": "",
          "type": "uint256"
        }
      ],
      "payable": false,
      "stateMutability": "view",
      "type": "function"
    },
    {
      "constant": true,
      "inputs": [],
      "name": "getTimestampExt",
      "outputs": [
        {
          "name": "",
          "type": "uint256"
        }
      ],
      "payable": false,
      "stateMutability": "view",
      "type": "function"
    },
    {
      "constant": false,
      "inputs": [
        {
          "name": "_number",
          "type": "uint256"
        }
      ],
      "name": "mockSetBlockNumber",
      "outputs": [],
      "payable": false,
      "stateMutability": "nonpayable",
      "type": "function"
    },
    {
      "constant": false,
      "inputs": [
        {
          "name": "_number",
          "type": "uint256"
        }
      ],
      "name": "mockAdvanceBlocks",
      "outputs": [],
      "payable": false,
      "stateMutability": "nonpayable",
      "type": "function"
    },
    {
      "constant": false,
      "inputs": [
        {
          "name": "_timestamp",
          "type": "uint256"
        }
      ],
      "name": "mockSetTimestamp",
      "outputs": [],
      "payable": false,
      "stateMutability": "nonpayable",
      "type": "function"
    },
    {
      "constant": false,
      "inputs": [
        {
          "name": "_seconds",
          "type": "uint256"
        }
      ],
      "name": "mockIncreaseTime",
      "outputs": [],
      "payable": false,
      "stateMutability": "nonpayable",
      "type": "function"
    }
  ],
  "bytecode": "0x608060405234801561001057600080fd5b5061033f806100206000396000f3fe608060405234801561001057600080fd5b50600436106100725760003560e01c806387adc1631161005057806387adc163146100cd5780638f49e12f146100ea5780639a60f3561461010757610072565b806312de7d70146100775780636958839e146100915780637750db14146100b0575b600080fd5b61007f61010f565b60408051918252519081900360200190f35b6100ae600480360360208110156100a757600080fd5b503561011f565b005b6100ae600480360360208110156100c657600080fd5b5035610124565b6100ae600480360360208110156100e357600080fd5b5035610186565b6100ae6004803603602081101561010057600080fd5b503561018b565b61007f6101c4565b60006101196101ce565b90505b90565b600055565b6001541561014c5760015461013f908263ffffffff61020816565b6002556000600155610183565b6002541561016f57600254610167908263ffffffff61020816565b600255610183565b61017f438263ffffffff61020816565b6002555b50565b600155565b600054156101ae576000546101a6908263ffffffff61020816565b600055610183565b6101be428263ffffffff61020816565b60005550565b60006101196102f1565b60006001546000146101e3575060015461011c565b60006101ed61030b565b905080600254116101fe5780610202565b6002545b91505090565b60408051808201909152601181527f4d4154485f4144445f4f564552464c4f57000000000000000000000000000000602082015260009083830190848210156102e9576040517f08c379a00000000000000000000000000000000000000000000000000000000081526004018080602001828103825283818151815260200191508051906020019080838360005b838110156102ae578181015183820152602001610296565b50505050905090810190601f1680156102db5780820380516001836020036101000a031916815260200191505b509250505060405180910390fd5b509392505050565b6000805415610303575060005461011c565b61011961030f565b4390565b429056fea165627a7a72305820e2bee9ef95424a633df0643761e7ad30e557548aa6dcf91c18d631a7dcddc8080029",
  "source": "pragma solidity ^0.5.8;\n\nimport \"../os/SafeMath.sol\";\nimport \"../os/TimeHelpers.sol\";\n\n\ncontract TimeHelpersMock is TimeHelpers {\n    using SafeMath for uint256;\n\n    uint256 private mockedTimestamp;\n    uint256 private mockedSetBlockNumber;\n    uint256 private mockedAdvancedBlockNumber;\n\n    /**\n    * @dev Tells the mocked block number in uint256, or the real block number if it wasn't mocked\n    */\n    function getBlockNumberExt() external view returns (uint256) {\n        return getBlockNumber();\n    }\n\n    /**\n    * @dev Tells the mocked timestamp value in uint256, or the real timestamp if it wasn't mocked\n    */\n    function getTimestampExt() external view returns (uint256) {\n        return getTimestamp();\n    }\n\n    /**\n    * @dev Sets a mocked block number value, used only for testing purposes\n    */\n    function mockSetBlockNumber(uint256 _number) external {\n        mockedSetBlockNumber = _number;\n    }\n\n    /**\n    * @dev Advances the mocked block number value, used only for testing purposes\n    */\n    function mockAdvanceBlocks(uint256 _number) external {\n        if (mockedSetBlockNumber != 0) {\n            mockedAdvancedBlockNumber = mockedSetBlockNumber.add(_number);\n            mockedSetBlockNumber = 0;\n        }\n        else if (mockedAdvancedBlockNumber != 0) mockedAdvancedBlockNumber = mockedAdvancedBlockNumber.add(_number);\n        else mockedAdvancedBlockNumber = block.number.add(_number);\n    }\n\n    /**\n    * @dev Sets a mocked timestamp value, used only for testing purposes\n    */\n    function mockSetTimestamp(uint256 _timestamp) external {\n        mockedTimestamp = _timestamp;\n    }\n\n    /**\n    * @dev Increases the mocked timestamp value, used only for testing purposes\n    */\n    function mockIncreaseTime(uint256 _seconds) external {\n        if (mockedTimestamp != 0) mockedTimestamp = mockedTimestamp.add(_seconds);\n        else mockedTimestamp = block.timestamp.add(_seconds);\n    }\n\n    /**\n    * @dev Internal function to get the mocked block number if it was set, or current `block.number`\n    */\n    function getBlockNumber() internal view returns (uint256) {\n        if (mockedSetBlockNumber != 0) return mockedSetBlockNumber;\n        uint256 realBlockNumber = super.getBlockNumber();\n        return (mockedAdvancedBlockNumber > realBlockNumber) ? mockedAdvancedBlockNumber : realBlockNumber;\n    }\n\n    /**\n    * @dev Internal function to get the mocked timestamp if it was set, or current `block.timestamp`\n    */\n    function getTimestamp() internal view returns (uint256) {\n        if (mockedTimestamp != 0) return mockedTimestamp;\n        return super.getTimestamp();\n    }\n}\n",
  "sourcePath": "/Users/facu/Documents/work/aragon/dev/token-faucet/contracts/test/TimeHelpersMock.sol",
  "compiler": {
    "name": "solc",
    "version": "0.5.8+commit.23d335f2.Emscripten.clang"
  },
  "schemaVersion": "3.0.19",
  "updatedAt": "2019-12-15T15:17:07.118Z",
  "devdoc": {
    "methods": {
      "getBlockNumberExt()": {
        "details": "Tells the mocked block number in uint256, or the real block number if it wasn't mocked"
      },
      "getTimestampExt()": {
        "details": "Tells the mocked timestamp value in uint256, or the real timestamp if it wasn't mocked"
      },
      "mockAdvanceBlocks(uint256)": {
        "details": "Advances the mocked block number value, used only for testing purposes"
      },
      "mockIncreaseTime(uint256)": {
        "details": "Increases the mocked timestamp value, used only for testing purposes"
      },
      "mockSetBlockNumber(uint256)": {
        "details": "Sets a mocked block number value, used only for testing purposes"
      },
      "mockSetTimestamp(uint256)": {
        "details": "Sets a mocked timestamp value, used only for testing purposes"
      }
    }
  },
  "userdoc": {
    "methods": {}
  }
}